:020000040800F2
:100000000004002025010008850100088501000882
:100010008501000885010008850100080000000036
:100020000000000000000000000000008501000842
:100030008501000800000000850100088501000816
:100040008501000885010008850100088501000878
:100050008501000885010008850100088501000868
:100060008501000885010008850100088501000858
:100070008501000885010008850100088501000848
:1000800085010008850100088501000800000000C6
:1000900000000000000000000000000085010008D2
:1000A0008501000885010008850100088501000818
:1000B0008501000885010008850100088501000808
:1000C00085010008850100088501000885010008F8
:1000D00085010008850100088501000885010008E8
:1000E0008501000885010008850100080000000066
:1000F0000000000000000000000000000000000000
:1001000000000000000000000000000000000000EF
:1001100000000000000000008501000885010008C3
:100120005FF808F180B582B000AF114B7B60114BD6
:100130003B6007E03B681A1D3A607A68111D7960E0
:1001400012681A603B680C4A9342F3D30B480C497F
:100150004FF000028842B8BF40F8042BFADB00F0F1
:1001600015F800F0A3F900BF0837BD4680BD00BFF9
:100170005C050008000000200000002000000020B6
:100180000000002080B400AFFEE7000080B500AFA3
:10019000174A174B1B6843F0010313601449144BB3
:1001A0005A68144B13404B60114A114B1B6823F0E3
:1001B000847323F4803313600D4A0D4B1B6823F4C2
:1001C000802313600A4A0A4B5B6823F4FE035360E2
:1001D000074B4FF41F029A60054B0022DA6200F0D1
:1001E0000DF8054B4FF000629A6000BF80BD00BF64
:1001F000001002400000FFF800ED00E080B500AF05
:1002000000F002F800BF80BD80B483B000AF0023CF
:100210007B6000233B60304A2F4B1B6843F48033E4
:1002200013602D4B1B6803F400333B607B68013384
:100230007B603B68002B03D17B68B3F5A06FF0D1E6
:10024000254B1B6803F40033002B02D001233B60D5
:1002500001E000233B603B68012B37D11E4A1E4B57
:100260005B6853601C4A1C4B5B6853601A4A1A4B0C
:100270005B685360184A184B5B6823F47C13536027
:10028000154A154B5B6843F498135360124A124B9E
:100290001B6843F08073136000BF0F4B1B6803F0B3
:1002A0000073002BF9D00C4A0B4B5B6823F003035F
:1002B0005360094A084B5B6843F00203536000BF78
:1002C000054B5B6803F00C03082BF9D100BF0C371A
:1002D000BD4680BC704700BF0010024080B489B0AA
:1002E00000AF786039600023FB6100233B6100238D
:1002F000BB610023FB6000237B610023BB603B6884
:10030000DB7803F00F03FB613B68DB7803F010033D
:10031000002B05D03B689B781A46FB691343FB61B1
:100320003B681B88DBB2002B44D07B681B687B6179
:100330000023BB6138E00122BB6902FA03F3FB60D2
:100340003B681B881A46FB6813403B613A69FB68AF
:100350009A4226D1BB699B00FB600F22FB6802FA20
:1003600003F3BB60BB68DB437A6913407B61FA69C6
:10037000FB6802FA03F37A6913437B613B68DB781D
:10038000282B05D10122BB699A407B685A6108E09D
:100390003B68DB78482B04D10122BB699A407B681B
:1003A0001A61BB690133BB61BB69072BC3D97B6889
:1003B0007A691A603B681B88FF2B46D97B685B68AB
:1003C0007B610023BB613AE0BB690833012202FA7A
:1003D00003F3FB603B681B881A46FB6813403B61D4
:1003E0003A69FB689A4227D1BB699B00FB600F22E8
:1003F000FB6802FA03F3BB60BB68DB437A69134016
:100400007B61FA69FB6802FA03F37A6913437B6143
:100410003B68DB78282B05D1BB69083301229A4061
:100420007B685A613B68DB78482B05D1BB69083390
:1004300001229A407B681A61BB690133BB61BB69C9
:10044000072BC1D97B687A695A6000BF2437BD4643
:1004500080BC704780B483B000AF78600B467B806F
:100460007A887B681A6100BF0C37BD4680BC704734
:1004700080B483B000AF78600B467B807A887B685D
:100480005A6100BF0C37BD4680BC704780B483B052
:1004900000AF786002E07B68013B7B607B68002BEB
:1004A000F9D100BF0C37BD4680BC704780B582B023
:1004B00000AF0121102000F033F84FF44073BB80EF
:1004C0001023FB710323BB713B1D19461248FFF734
:1004D00005FF4FF400711048FFF7BCFF0F48FFF70E
:1004E000D5FF4FF480710C48FFF7B4FF42F2107053
:1004F000FFF7CCFF4FF400710748FFF7B9FF07483B
:10050000FFF7C4FF4FF480710348FFF7B1FF42F2D9
:100510001070FFF7BBFFDCE700100140A086010070
:1005200080B483B000AF78600B46FB70FB78002B83
:1005300006D00949084B9A697B6813438B6106E032
:100540000549054B9A697B68DB4313408B6100BF0B
:0C0550000C37BD4680BC70470010024014
:0400000508000000EF
:00000001FF
