:020000040800F2
:100000000004002025010008850100088501000882
:100010008501000885010008850100080000000036
:100020000000000000000000000000008501000842
:100030008501000800000000850100088501000816
:100040008501000885010008850100088501000878
:100050008501000885010008850100088501000868
:100060008501000885010008850100088501000858
:100070008501000885010008850100088501000848
:1000800085010008850100088501000800000000C6
:1000900000000000000000000000000085010008D2
:1000A0008501000885010008850100088501000818
:1000B0008501000885010008850100088501000808
:1000C00085010008850100088501000885010008F8
:1000D00085010008C90D0008850100088501000898
:1000E0008501000885010008850100080000000066
:1000F0000000000000000000000000000000000000
:1001000000000000000000000000000000000000EF
:1001100000000000000000008501000885010008C3
:100120005FF808F180B582B000AF114B7B60114BD6
:100130003B6007E03B681A1D3A607A68111D7960E0
:1001400012681A603B680C4A9342F3D30B480C497F
:100150004FF000028842B8BF40F8042BFADB00F0F1
:1001600015F800F0C1F900BF0837BD4680BD00BFDB
:10017000981400080000002000000020000000206B
:100180000000002080B400AFFEE7000080B500AFA3
:10019000174A174B1B6843F0010313601449144BB3
:1001A0005A68144B13404B60114A114B1B6823F0E3
:1001B000847323F4803313600D4A0D4B1B6823F4C2
:1001C000802313600A4A0A4B5B6823F4FE035360E2
:1001D000074B4FF41F029A60054B0022DA6200F0D1
:1001E0000DF8054B4FF000629A6000BF80BD00BF64
:1001F000001002400000FFF800ED00E080B500AF05
:1002000000F002F800BF80BD80B483B000AF0023CF
:100210007B6000233B60304A2F4B1B6843F48033E4
:1002200013602D4B1B6803F400333B607B68013384
:100230007B603B68002B03D17B68B3F5A06FF0D1E6
:10024000254B1B6803F40033002B02D001233B60D5
:1002500001E000233B603B68012B37D11E4A1E4B57
:100260005B6853601C4A1C4B5B6853601A4A1A4B0C
:100270005B685360184A184B5B6823F47C13536027
:10028000154A154B5B6843F498135360124A124B9E
:100290001B6843F08073136000BF0F4B1B6803F0B3
:1002A0000073002BF9D00C4A0B4B5B6823F003035F
:1002B0005360094A084B5B6843F00203536000BF78
:1002C000054B5B6803F00C03082BF9D100BF0C371A
:1002D000BD4680BC704700BF0010024080B489B0AA
:1002E00000AF786039600023FB6100233B6100238D
:1002F000BB610023FB6000237B610023BB603B6884
:10030000DB7803F00F03FB613B68DB7803F010033D
:10031000002B05D03B689B781A46FB691343FB61B1
:100320003B681B88DBB2002B44D07B681B687B6179
:100330000023BB6138E00122BB6902FA03F3FB60D2
:100340003B681B881A46FB6813403B613A69FB68AF
:100350009A4226D1BB699B00FB600F22FB6802FA20
:1003600003F3BB60BB68DB437A6913407B61FA69C6
:10037000FB6802FA03F37A6913437B613B68DB781D
:10038000282B05D10122BB699A407B685A6108E09D
:100390003B68DB78482B04D10122BB699A407B681B
:1003A0001A61BB690133BB61BB69072BC3D97B6889
:1003B0007A691A603B681B88FF2B46D97B685B68AB
:1003C0007B610023BB613AE0BB690833012202FA7A
:1003D00003F3FB603B681B881A46FB6813403B61D4
:1003E0003A69FB689A4227D1BB699B00FB600F22E8
:1003F000FB6802FA03F3BB60BB68DB437A69134016
:100400007B61FA69FB6802FA03F37A6913437B6143
:100410003B68DB78282B05D1BB69083301229A4061
:100420007B685A613B68DB78482B05D1BB69083390
:1004300001229A407B681A61BB690133BB61BB69C9
:10044000072BC1D97B687A695A6000BF2437BD4643
:1004500080BC704780B483B000AF78600B467B806F
:100460007A887B681A6100BF0C37BD4680BC704734
:1004700080B483B000AF78600B467B807A887B685D
:100480005A6100BF0C37BD4680BC704780B483B052
:1004900000AF78600B467B8013467B707B78002B27
:1004A00003D07A887B681A6102E07A887B685A6197
:1004B00000BF0C37BD4680BC704780B485B000AF2C
:1004C00078600023FB6002E0FB680133FB607B681F
:1004D0004FF47A7202FB03F2FB689A42F4D100BF38
:1004E0001437BD4680BC70472DE9B0438AB000AFD9
:1004F0000121102000F08EFB4FF440733B8010234D
:10050000FB700223BB703B4619466848FFF7E6FEC6
:10051000012000F09DFB00F015FC4FF4FA70FFF78E
:10052000CCFF302000F086FCC820FFF7C6FFA023D8
:100530003B611423FB60F9684B1EBB600B461A46F7
:100540004FF000034FEA431949EAD2694FEA4218D3
:100550000B461A464FF000035D0145EAD26554018F
:100560000B469B0003330733DB08DB00ADEB030DC9
:100570006B4603339B089B007B6000237B6207E094
:100580007B687A6A002143F822107B6A01337B6220
:100590007A6AFB689A42F3DB00233B62FB685A1ECF
:1005A0003B6A9A4203D03B6A01333B6213E000236B
:1005B000FB610BE0FB695A1C7B6853F822107B68D7
:1005C000FA6943F82210FB690133FB61FB685A1E8C
:1005D000FB699A42EEDC00F093FB034619467B6808
:1005E0003A6A43F8221000F08BFB024640F654337F
:1005F0009A4202D96420FFF760FF4FF00003BB610D
:1006000000237B6110E07B687A6953F8223018463A
:1006100000F014FD03461946B86900F05BFC034680
:10062000BB617B6901337B617A69FB689A42EADBD3
:10063000F86800F003FD03461946B86900F006FEAD
:100640000346BB6101224FF480711848FFF71EFF7B
:100650000520FFF732FF00224FF480711348FFF7A7
:1006600015FF00F04DFB0346184600F0FBFB0A2087
:1006700000F0E0FB386900F0E1FC0346B969184678
:1006800000F0CEFE0346002B06D001224FF400718D
:100690000648FFF7FBFE05E000224FF40071034817
:1006A000FFF7F4FE6420FFF708FF77E70010014032
:1006B00080B483B000AF78600B46FB707B68FA783B
:1006C0001A70012318460C37BD4680BC704780B4B1
:1006D00085B000AF786039600023FB600AE07B687A
:1006E0005A1C7A603A68511C396012781A70FB689B
:1006F0000133FB603B681B78002BF0D1FB68184688
:100700001437BD4680BC704780B586B000AFF86036
:100710007A603B600B46FB7200237B617B68013B88
:100720007B603B68092B1DD93B681D4AA2FB032354
:10073000DB08F97A7A68F868FFF7E6FF78617B6989
:10074000FA681344FB6010E0FB7A1946F868FFF77B
:10075000AFFFFB680133FB607B6901337B617B6822
:10076000013B7B607B68002BEEDC39680C4BA3FB04
:100770000123DA0813469B0013445B00CA1AD3B264
:100780003033DBB21946F868FFF792FF02467B6907
:1007900013447B617B6918461837BD4680BD00BF96
:1007A000CDCCCCCC80B586B000AFF8607A603B6031
:1007B0000B46FB7200237B613B68002B03DA3B682E
:1007C0005B423B6101E03B683B617B68013B7B60D6
:1007D0003B69092B1FD93B68002B0CDA3B692E4A79
:1007E000A2FB0323DB085B42F97A7A68F868FFF71B
:1007F000D9FF78610AE03B69274AA2FB0323DB08A3
:10080000F97A7A68F868FFF7CDFF78617B69FA6852
:100810001344FB6025E03B68002B11DA7B68013B49
:100820007B600DE0FB7A1946F868FFF741FFFB6833
:100830000133FB607B6901337B617B68013B7B603B
:100840007B68002BEEDC3B68002B0ADA2D21F86870
:10085000FFF72EFF02467B6913447B61FB6801337F
:10086000FB6039690C4BA3FB0123DA0813469B009C
:1008700013445B00CA1AD3B23033DBB21946F868AE
:10088000FFF716FF02467B6913447B617B691846BC
:100890001837BD4680BD00BFCDCCCCCC80B588B06C
:1008A00002AFF8607A601A460B46FB721346BB72C1
:1008B00000237B617B68013B7B603B6A1B09002B4B
:1008C00020D03B6A1B09BA7AF97A009313467A68FA
:1008D000F868FFF7E3FF02467B6913447B617B699D
:1008E000FA681344FB6010E0FB7A1946F868FFF7DA
:1008F000DFFEFB680133FB607B6901337B617B6852
:10090000013B7B607B68002BEEDC3B6A03F00F034E
:10091000092B0BD83B6ADBB203F00F03DBB2303399
:10092000DBB21946F868FFF7C3FE19E0BB7A002B6B
:100930000BD03B6ADBB203F00F03DBB23733DBB221
:100940001946F868FFF7B4FE0AE03B6ADBB203F031
:100950000F03DBB25733DBB21946F868FFF7A8FE86
:100960007B6901337B617B6918461837BD4680BDC2
:1009700080B58AB002AFF860B9607A603B6000234E
:10098000BB6100237B61FB68002B00F0FC80FB68EF
:1009900000221A70F7E07B681B78252B0BD0FB68D0
:1009A0005A1CFA607A68511C796012781A707B6957
:1009B00001337B61E7E07B6801331B78252B0BD18A
:1009C000FB685A1CFA6025221A707B6802337B6030
:1009D0007B6901337B61D6E02023FB770023BB7763
:1009E0007B6801337B607B681B78302B14D130230C
:1009F000FB777B6801337B600EE0BB7F1A46920079
:100A000013445B00DAB27B681B781344DBB2303BE3
:100A1000BB777B6801337B607B681B782F2B03D906
:100A20007B681B78392BE8D9BA7F7B6913441A4657
:100A3000BB689A4205D9BB68DAB27B69DBB2D31ACC
:100A4000BB777B681B78583B202B00F28E8001A27D
:100A500052F823F0250B00086B0B00086B0B000805
:100A60006B0B00086B0B00086B0B00086B0B00088E
:100A70006B0B00086B0B00086B0B00086B0B00087E
:100A8000550B0008D90A00086B0B00086B0B000817
:100A90006B0B00086B0B0008D90A00086B0B0008F1
:100AA0006B0B00086B0B00086B0B00086B0B00084E
:100AB0006B0B00086B0B00086B0B00086B0B00083E
:100AC000410B00086B0B0008F10A00086B0B0008D3
:100AD0006B0B0008090B0008B87F3B681A1D3A60D1
:100AE0001B68F97F0246F868FFF75CFEB8613FE0DB
:100AF000B87F3B681A1D3A601B68F97F0246F868A8
:100B0000FFF702FEB86133E0B87F3B681A1D3A6018
:100B10001B68F97F009300230246F868FFF7BEFECA
:100B2000B86125E0B87F3B681A1D3A601B68F97F01
:100B3000009301230246F868FFF7B0FEB86117E0A2
:100B40003B681A1D3A601B681946F868FFF7BFFD3D
:100B5000B8610DE03B681A1D3A601B68DBB21946AC
:100B6000F868FFF7A5FDB86102E04FF0FF3325E01C
:100B70007B6801337B60BB69FA681344FB607A6968
:100B8000BB6913447B617B681B78002B04D07A69B6
:100B9000BB689A42FFF4FFAE7A69BB689A4203D2FF
:100BA000FB6800221A7008E0FB68013BFB60FB68F1
:100BB00000221A707B69013B7B617B6918462037F4
:100BC000BD4680BD80B584B000AFF860B9607A6082
:100BD0007B68BA686421F868FFF7CAFE03461846C6
:100BE0001037BD4680BD0EB480B585B000AF7860CB
:100BF00007F12003BB60BA68F9697868FFF7E2FF84
:100C0000F860FB6818461437BD46BDE8804003B065
:100C10007047000080B483B000AF78600B46FB7073
:100C2000FB78002B06D00949084B9A697B6813436F
:100C30008B6106E00549054B9A697B68DB431340ED
:100C40008B6100BF0C37BD4680BC7047001002406E
:100C500080B582B000AF786001210420FFF7DAFF91
:100C600001214FF40070FFF7D5FF244A234B9B6806
:100C700043F00403936000BF204B9B6803F0040320
:100C8000002BF9D01D4A1D4B1B6943F0380313613B
:100C90001A4A1A4B9B6843F4E0439360174A174B78
:100CA0009B6843F400439360144A144B9B6843F0E1
:100CB00002039360114A114B5B6843F480635360F5
:100CC0000E490E4B9B6B7A68D20313438B630B4A1E
:100CD0000A4B9B6843F001039360084A074B9B68EB
:100CE00043F40013936000BF044B1B6803F004033C
:100CF000002BF9D000BF0837BD4680BD002401405D
:100D000080B400AF024BDB6B1846BD4680BC704719
:100D10000024014080B483B000AF0346FB71084952
:100D200097F907305B09FA7902F01F02012000FAF7
:100D300002F241F8232000BF0C37BD4680BC70474B
:100D400000E100E080B500AF1B4A1B4B9B6943F4F8
:100D5000804343F005039361184B5B68174B0022F7
:100D60005A60164A154B5B6843F492635360144B08
:100D700040F6C4121A81124A114B9B899BB243F070
:100D80000C039BB293810E4A0D4B9B899BB243F49B
:100D900000539BB293810A4A094B9B899BB243F053
:100DA00020039BB293812520FFF7B4FF054800F094
:100DB0006FF800BF80BD00BF001002400008014076
:100DC000003801407014000880B500AF154B1B8837
:100DD0009BB203F02003002B21D0124A114B1B8839
:100DE0009BB223F020039BB213800E4B9B889BB2D7
:100DF000312B07D14FF400710B48FFF72BFB0B4849
:100E000000F046F8074B9B889BB2322B07D14FF47A
:100E100000710548FFF72CFB054800F039F800BFCA
:100E200080BD00BF0038014000100140841400085C
:100E30008C14000880B483B000AF0346FB7100BF80
:100E4000074B1B889BB203F04003002BF8D0044BE8
:100E5000FA7992B29A8000BF0C37BD4680BC7047C9
:100E60000038014080B586B000AF786007F10C0310
:100E70007A6806491846FFF7B6FE07F10C031846D4
:100E800000F006F800BF1837BD4680BD9414000876
:100E900080B584B000AF78600023FB6009E0FB6898
:100EA0005A1CFA601A467B6813441B781846FFF7F1
:100EB000C1FFFB687A6813441B78002BEFD100BF99
:100EC0001037BD4680BD000080F0004002E000BF4A
:100ED00081F0004142001FBF5FEA410392EA030F25
:100EE0007FEA226C7FEA236C6AD04FEA1262D2EB6F
:100EF0001363C1BFD218414048404140B8BF5B4274
:100F0000192B88BF704710F0004F40F4000020F00C
:100F10007F4018BF404211F0004F41F4000121F022
:100F20007F4118BF494292EA030F3FD0A2F101026C
:100F300041FA03FC10EB0C00C3F1200301FA03F1AA
:100F400000F0004302D5494260EB4000B0F5000FCD
:100F500013D3B0F1807F06D340084FEA310102F18C
:100F60000102FE2A51D2B1F1004F40EBC25008BF3E
:100F700020F0010040EA03007047490040EB000008
:100F800010F4000FA2F10102EDD1B0FA80FCACF137
:100F9000080CB2EB0C0200FA0CF0AABF00EBC25036
:100FA00052421843BCBFD0401843704792F0000F24
:100FB00081F4000106BF80F400000132013BB5E777
:100FC0004FEA41037FEA226C18BF7FEA236C21D0ED
:100FD00092EA030F04D092F0000F08BF0846704752
:100FE00090EA010F1CBF0020704712F07F4F04D120
:100FF000400028BF40F00040704712F100723CBF33
:1010000000F50000704700F0004343F0FE4040F45C
:10101000000070477FEA226216BF08467FEA23631A
:101020000146420206BF5FEA412390EA010F40F405
:10103000800070474FF0000304E000BF10F0004351
:1010400048BF40425FEA000C08BF704743F0964338
:1010500001464FF000001CE050EA010208BF704753
:101060004FF000030AE000BF50EA010208BF7047DA
:1010700011F0004302D5404261EB41015FEA010CEF
:1010800002BF84460146002043F0B64308BFA3F1E7
:101090008053A3F50003BCFA8CF2083AA3EBC253C9
:1010A00010DB01FA02FC634400FA02FCC2F12002E8
:1010B000BCF1004F20FA02F243EB020008BF20F01F
:1010C0000100704702F1200201FA02FCC2F1200285
:1010D00050EA4C0021FA02F243EB020008BF20EA7A
:1010E000DC7070474FF0FF0C1CEAD0521EBF1CEAA8
:1010F000D15392EA0C0F93EA0C0F6FD01A4480EA96
:10110000010C400218BF5FEA41211ED04FF000637E
:1011100043EA501043EA5111A0FB01310CF00040AA
:10112000B1F5000F3EBF490041EAD3715B0040EAD0
:10113000010062F17F02FD2A1DD8B3F1004F40EBA0
:10114000C25008BF20F00100704790F0000F0CF073
:10115000004C08BF49024CEA502040EA51207F3A37
:10116000C2BFD2F1FF0340EAC250704740F4000012
:101170004FF00003013A5DDC12F1190FDCBF00F003
:1011800000407047C2F10002410021FA02F1C2F1B1
:10119000200200FA02FC5FEA310040F1000053EA4D
:1011A0004C0308BF20EADC70704792F0000F00F09B
:1011B000004C02BF400010F4000F013AF9D040EAA1
:1011C0000C0093F0000F01F0004C02BF490011F435
:1011D000000F013BF9D041EA0C018FE70CEAD15333
:1011E00092EA0C0F18BF93EA0C0F0AD030F0004CB3
:1011F00018BF31F0004CD8D180EA010000F0004067
:10120000704790F0000F17BF90F0004F084691F024
:10121000000F91F0004F14D092EA0C0F01D142025E
:101220000FD193EA0C0F03D14B0218BF084608D127
:1012300080EA010000F0004040F0FE4040F4000071
:10124000704740F0FE4040F4400070474FF0FF0C04
:101250001CEAD0521EBF1CEAD15392EA0C0F93EA4B
:101260000C0F69D0A2EB030280EA010C49024FEA9D
:10127000402037D04FF0805343EA111143EA101356
:101280000CF000408B4238BF5B0042F17D024FF40E
:10129000000C8B4224BF5B1A40EA0C00B3EB510FE9
:1012A00024BFA3EB510340EA5C00B3EB910F24BFD2
:1012B000A3EB910340EA9C00B3EBD10F24BFA3EB57
:1012C000D10340EADC001B0118BF5FEA1C1CE0D11F
:1012D000FD2A3FF650AF8B4240EBC25008BF20F0D2
:1012E000010070470CF0004C4CEA50207F32C2BF26
:1012F000D2F1FF0340EAC250704740F400004FF0C3
:101300000003013A37E792F0000F00F0004C02BFF3
:10131000400010F4000F013AF9D040EA0C0093F0BD
:10132000000F01F0004C02BF490011F4000F013B17
:10133000F9D041EA0C0195E70CEAD15392EA0C0F7F
:1013400008D142027FF47DAF93EA0C0F7FF470AFB7
:10135000084676E793EA0C0F04D14B023FF44CAFFA
:1013600008466EE730F0004C18BF31F0004CCAD18F
:1013700030F000427FF45CAF31F000437FF43CAFCB
:101380005FE700BF4FF0FF3C06E000BF4FF0010CED
:1013900002E000BF4FF0010C4DF804CD4FEA4002CF
:1013A0004FEA41037FEA226C18BF7FEA236C11D019
:1013B00001B052EA530C18BF90EA010F58BFB2EBCC
:1013C000030088BFC81738BF6FEAE17018BF40F04C
:1013D000010070477FEA226C02D15FEA402C05D100
:1013E0007FEA236CE4D15FEA412CE1D05DF8040B85
:1013F000704700BF844608466146FFE70FB5FFF718
:10140000C9FF002848BF10F1000F0FBD4DF808EDCF
:10141000FFF7F4FF0CBF012000205DF808FB00BFC0
:101420004DF808EDFFF7EAFF34BF012000205DF81A
:1014300008FB00BF4DF808EDFFF7E0FF94BF012067
:1014400000205DF808FB00BF4DF808EDFFF7D2FF64
:1014500094BF012000205DF808FB00BF4DF808EDA7
:10146000FFF7C8FF34BF012000205DF808FB00BF74
:1014700055534152543120537461727465640D0A9E
:10148000000000004F6E0D0A000000004F66660D60
:071490000A000000257500B1
:0400000508000000EF
:00000001FF
